{
  "transactions": [
    {
      "hash": "0x35e7904209aa031f252dbcef2e4411b63c174abf48e6b8712f5ec31058f51d24",
      "transactionType": "CALL",
      "contractName": "L2RegistryFactory",
      "contractAddress": "0xa59ef1dcc0c4bcbdc718b95c0680b6b97bb451eb",
      "function": "deployRegistry(string,string,string)",
      "arguments": [
        "\"TUKTUK\"",
        "\"TUKTUK\"",
        "\"https://storageapi.fleek.co/nfts/\""
      ],
      "transaction": {
        "from": "0xa37d7f10160e7f283fa704cd3d33edd2cd5c661d",
        "to": "0xa59ef1dcc0c4bcbdc718b95c0680b6b97bb451eb",
        "gas": "0x6650c",
        "value": "0x0",
        "input": "0x09f85c40000000000000000000000000000000000000000000000000000000000000006000000000000000000000000000000000000000000000000000000000000000a000000000000000000000000000000000000000000000000000000000000000e0000000000000000000000000000000000000000000000000000000000000000654554b54554b0000000000000000000000000000000000000000000000000000000000000000000000000000000000000000000000000000000000000000000654554b54554b0000000000000000000000000000000000000000000000000000000000000000000000000000000000000000000000000000000000000000002168747470733a2f2f73746f726167656170692e666c65656b2e636f2f6e6674732f00000000000000000000000000000000000000000000000000000000000000",
        "nonce": "0x1",
        "chainId": "0x14a34"
      },
      "additionalContracts": [
        {
          "transactionType": "CREATE",
          "address": "0x058c65f10e4094293d45d04474f7344680e6adbf",
          "initCode": "0x3d602d80600a3d3981f3363d3d373d3d3d363d733880ffea71082842014e6d0dae5d601aaca581195af43d82803e903d91602b57fd5bf3"
        }
      ],
      "isFixedGasLimit": false
    }
  ],
  "receipts": [
    {
      "status": "0x1",
      "cumulativeGasUsed": "0x26ca48",
      "logs": [
        {
          "address": "0x058c65f10e4094293d45d04474f7344680e6adbf",
          "topics": [
            "0x2f8788117e7eff1d82e926ec794901d17c78024a50270940304540a733656f0d",
            "0x0000000000000000000000000000000000000000000000000000000000000000",
            "0x000000000000000000000000a59ef1dcc0c4bcbdc718b95c0680b6b97bb451eb",
            "0x000000000000000000000000a59ef1dcc0c4bcbdc718b95c0680b6b97bb451eb"
          ],
          "data": "0x",
          "blockHash": "0x40bce58c9ad9dc3db57c6dd6775ae45edaf747a21308f8fffcf08d3ba31f2c48",
          "blockNumber": "0x112a241",
          "transactionHash": "0x35e7904209aa031f252dbcef2e4411b63c174abf48e6b8712f5ec31058f51d24",
          "transactionIndex": "0xb",
          "logIndex": "0x20",
          "removed": false
        },
        {
          "address": "0x058c65f10e4094293d45d04474f7344680e6adbf",
          "topics": [
            "0x2f8788117e7eff1d82e926ec794901d17c78024a50270940304540a733656f0d",
            "0xa49807205ce4d355092ef5a8a18f56e8913cf4a201fbe287825b095693c21775",
            "0x000000000000000000000000a59ef1dcc0c4bcbdc718b95c0680b6b97bb451eb",
            "0x000000000000000000000000a59ef1dcc0c4bcbdc718b95c0680b6b97bb451eb"
          ],
          "data": "0x",
          "blockHash": "0x40bce58c9ad9dc3db57c6dd6775ae45edaf747a21308f8fffcf08d3ba31f2c48",
          "blockNumber": "0x112a241",
          "transactionHash": "0x35e7904209aa031f252dbcef2e4411b63c174abf48e6b8712f5ec31058f51d24",
          "transactionIndex": "0xb",
          "logIndex": "0x21",
          "removed": false
        },
        {
          "address": "0x058c65f10e4094293d45d04474f7344680e6adbf",
          "topics": [
            "0x2f8788117e7eff1d82e926ec794901d17c78024a50270940304540a733656f0d",
            "0x0000000000000000000000000000000000000000000000000000000000000000",
            "0x000000000000000000000000a37d7f10160e7f283fa704cd3d33edd2cd5c661d",
            "0x000000000000000000000000a59ef1dcc0c4bcbdc718b95c0680b6b97bb451eb"
          ],
          "data": "0x",
          "blockHash": "0x40bce58c9ad9dc3db57c6dd6775ae45edaf747a21308f8fffcf08d3ba31f2c48",
          "blockNumber": "0x112a241",
          "transactionHash": "0x35e7904209aa031f252dbcef2e4411b63c174abf48e6b8712f5ec31058f51d24",
          "transactionIndex": "0xb",
          "logIndex": "0x22",
          "removed": false
        },
        {
          "address": "0x058c65f10e4094293d45d04474f7344680e6adbf",
          "topics": [
            "0x2f8788117e7eff1d82e926ec794901d17c78024a50270940304540a733656f0d",
            "0xa49807205ce4d355092ef5a8a18f56e8913cf4a201fbe287825b095693c21775",
            "0x000000000000000000000000a37d7f10160e7f283fa704cd3d33edd2cd5c661d",
            "0x000000000000000000000000a59ef1dcc0c4bcbdc718b95c0680b6b97bb451eb"
          ],
          "data": "0x",
          "blockHash": "0x40bce58c9ad9dc3db57c6dd6775ae45edaf747a21308f8fffcf08d3ba31f2c48",
          "blockNumber": "0x112a241",
          "transactionHash": "0x35e7904209aa031f252dbcef2e4411b63c174abf48e6b8712f5ec31058f51d24",
          "transactionIndex": "0xb",
          "logIndex": "0x23",
          "removed": false
        },
        {
          "address": "0x058c65f10e4094293d45d04474f7344680e6adbf",
          "topics": [
            "0xf6391f5c32d9c69d2a47ea670b442974b53935d1edc7fd64eb21e047a839171b",
            "0x0000000000000000000000000000000000000000000000000000000000000000",
            "0x000000000000000000000000a59ef1dcc0c4bcbdc718b95c0680b6b97bb451eb",
            "0x000000000000000000000000a59ef1dcc0c4bcbdc718b95c0680b6b97bb451eb"
          ],
          "data": "0x",
          "blockHash": "0x40bce58c9ad9dc3db57c6dd6775ae45edaf747a21308f8fffcf08d3ba31f2c48",
          "blockNumber": "0x112a241",
          "transactionHash": "0x35e7904209aa031f252dbcef2e4411b63c174abf48e6b8712f5ec31058f51d24",
          "transactionIndex": "0xb",
          "logIndex": "0x24",
          "removed": false
        },
        {
          "address": "0x058c65f10e4094293d45d04474f7344680e6adbf",
          "topics": [
            "0xf6391f5c32d9c69d2a47ea670b442974b53935d1edc7fd64eb21e047a839171b",
            "0xa49807205ce4d355092ef5a8a18f56e8913cf4a201fbe287825b095693c21775",
            "0x000000000000000000000000a59ef1dcc0c4bcbdc718b95c0680b6b97bb451eb",
            "0x000000000000000000000000a59ef1dcc0c4bcbdc718b95c0680b6b97bb451eb"
          ],
          "data": "0x",
          "blockHash": "0x40bce58c9ad9dc3db57c6dd6775ae45edaf747a21308f8fffcf08d3ba31f2c48",
          "blockNumber": "0x112a241",
          "transactionHash": "0x35e7904209aa031f252dbcef2e4411b63c174abf48e6b8712f5ec31058f51d24",
          "transactionIndex": "0xb",
          "logIndex": "0x25",
          "removed": false
        },
        {
          "address": "0xa59ef1dcc0c4bcbdc718b95c0680b6b97bb451eb",
          "topics": [
            "0x964252ec5977994dc4c15d94a3f74cd99d64e5da279afd5f49ec09cd1fd264a3"
          ],
          "data": "0x000000000000000000000000058c65f10e4094293d45d04474f7344680e6adbf00000000000000000000000000000000000000000000000000000000000000a000000000000000000000000000000000000000000000000000000000000000e00000000000000000000000000000000000000000000000000000000000000120000000000000000000000000a37d7f10160e7f283fa704cd3d33edd2cd5c661d000000000000000000000000000000000000000000000000000000000000000654554b54554b0000000000000000000000000000000000000000000000000000000000000000000000000000000000000000000000000000000000000000000654554b54554b0000000000000000000000000000000000000000000000000000000000000000000000000000000000000000000000000000000000000000002168747470733a2f2f73746f726167656170692e666c65656b2e636f2f6e6674732f00000000000000000000000000000000000000000000000000000000000000",
          "blockHash": "0x40bce58c9ad9dc3db57c6dd6775ae45edaf747a21308f8fffcf08d3ba31f2c48",
          "blockNumber": "0x112a241",
          "transactionHash": "0x35e7904209aa031f252dbcef2e4411b63c174abf48e6b8712f5ec31058f51d24",
          "transactionIndex": "0xb",
          "logIndex": "0x26",
          "removed": false
        }
      ],
      "logsBloom": "0x00000004000000000000000000000000000000000000000040000040000000000000000000000000000000000000000000200000010000000000000000000000000000100000000000000000000000000100000020000002000000000000000040000000020000000000000000200800000000000000000900000000000000000000000040000000000000000000004000000000000000000000000000000000000000000000000000000000000000000000080000000000001000000000000000000000000000000000000080000000000080000000000110400000000020000000000000000000010000000000080000000000000000000000000000000000",
      "type": "0x2",
      "transactionHash": "0x35e7904209aa031f252dbcef2e4411b63c174abf48e6b8712f5ec31058f51d24",
      "transactionIndex": "0xb",
      "blockHash": "0x40bce58c9ad9dc3db57c6dd6775ae45edaf747a21308f8fffcf08d3ba31f2c48",
      "blockNumber": "0x112a241",
      "gasUsed": "0x45f5e",
      "effectiveGasPrice": "0x30f",
      "from": "0xa37d7f10160e7f283fa704cd3d33edd2cd5c661d",
      "to": "0xa59ef1dcc0c4bcbdc718b95c0680b6b97bb451eb",
      "contractAddress": null,
      "l1BaseFeeScalar": "0x44d",
      "l1BlobBaseFee": "0x1",
      "l1BlobBaseFeeScalar": "0xa118b",
      "l1Fee": "0x61335df8",
      "l1GasPrice": "0x2c8ab526",
      "l1GasUsed": "0x7be"
    }
  ],
  "libraries": [],
  "pending": [],
  "returns": {},
  "timestamp": 1731765096,
  "chain": 84532,
  "commit": "df9f5ef"
}